:05001E0012000380FE4A
:03002300020026B2
:10002600C0E0C0F0C083C082C0D075D000C000C0A0
:1000360001C002C003C004C005C006C00730980C4A
:10004600E599F4F5A0AF99120079C298D007D006C9
:10005600D005D004D003D002D001D000D0D0D082B9
:07006600D083D0F0D0E0329E
:1000030043878075985053890F438920758BF37507
:0B0013008DF3C2ABD28ED2ACD2AF2274
:080079008F993099FDC2992214
:0300000002006D8E
:0C006D00787FE4F6D8FD75810702001EC4
:00000001FF
