:100458004D61747269784B65793A004F4B200045BD
:03046800525200ED
:10018C001204447BFF7A0479587D017F011203BB72
:10019C001200038F18E51860F7D3940A5041C3E599
:1001AC001A9404E51994005028AE1BAF1C7C007DFA
:1001BC000A1202768E1B8F1CE51875F00A84E5F086
:1001CC00251CF51CE4351BF51B051AE51A700205F8
:1001DC0019750C04AB1CAA1B7D017F021203FCE5F4
:1001EC0018640B7036E51CB4290DE51BB409087BAB
:1001FC00FF7A04796380067BFF7A0479677D0E7F32
:10020C00011203BBE4F51BF51CF519F51A750C046A
:10021C00AB1CAA1B7D017F021203FCE518640C6069
:10022C000302019CF51BF51CF519F51A750C04ABB2
:0D023C001CAA1B7D017F021203FC02019C25
:10000300E4F5087590FFC2972093137F14FE120442
:100013002F3093FD7F147E0012042F750801209268
:10002300147F147E0012042F3092FD7F147E001281
:10003300042F7508022091147F147E0012042F30C0
:1000430091FD7F147E0012042F7508032090147F06
:10005300147E0012042F3090FD7F147E0012042FB3
:100063007508047590FFC2962093147F147E0012C6
:10007300042F3093FD7F147E0012042F7508052092
:1000830092147F147E0012042F3092FD7F147E00A1
:1000930012042F7508062091147F147E0012042F7A
:1000A3003091FD7F147E0012042F750807209014F1
:1000B3007F147E0012042F3090FD7F147E00120403
:1000C3002F7508087590FFC2952093147F147E0046
:1000D30012042F3093FD7F147E0012042F7508093C
:1000E3002092147F147E0012042F3092FD7F147E21
:1000F3000012042F75080A2091147F147E00120445
:100103002F3091FD7F147E0012042F75080B209071
:10011300147F147E0012042F3090FD7F147E001292
:10012300042F75080C7590FFC2942093147F147EDE
:100133000012042F3093FD7F147E0012042F7508E4
:100143000D2092147F147E0012042F3092FD7F1431
:100153007E0012042F75080E2091147F147E001266
:10016300042F3091FD7F147E0012042F75080F2099
:1001730090147F147E0012042F3090FD7F147E00B4
:0801830012042F750810AF08EB
:01018B002251
:10042F00EF1FAC0670011E4C600A7D027CEFDCFEF4
:04043F00DDFC80EC74
:010443002296
:06046B00C2A58F80D2A79C
:080471007F027EEFDEFEDFFCDE
:010479002260
:0A048600C2A612046BC2A7020471A3
:1003DE00CFCDCFCECCCE1202887C007D0A12028801
:0403EE00ED2430FFCB
:0A03F200D2A612046BC2A702047128
:10041900AE07BE0104ED148006BE0209ED243F4477
:0604290080FF1204862290
:100444007F381204867F0C1204867F061204867F8E
:040454000102048617
:0A049000AC03120419AF040203F2DA
:0603BB008B088A09890A83
:1003C100120419E4FDAB08AA09A90A8D82758300FC
:0C03D100120249FF60061203F20D80E9E1
:0103DD0022FD
:0C0388007F0AEA24FFFDE434FFFC7E0045
:080394008E0D8F0E8C0F8D10F1
:10039C007F017E00E4FBEBC39510E50F6480F874DD
:0E03AC008098500AAC0DAD0E1202760B80E860
:0103BA002220
:0403FC008A0A8B0BD3
:10040000120419AA0CEAD39400400D120388AC0A16
:08041000AD0B1203DE1A80EDB2
:0104180022C1
:1002DD00120419C3EA64809480400B7F2B1203F241
:1002ED008A168B17800E7F2D1203F2C3E49BF51730
:1002FD00E49AF516AA15EAD39400400D120388ACC2
:09030D0016AD171203DE1A80ED93
:0103160022C4
:040317008A1F8B208E
:10031B00120419AA21EAD3940040297F1012038AF0
:10032B00AC1FAD20CFCDCFCECCCE120288EF540F69
:10033B00FEC3940AEE5004243080022437FF1203CC
:04034B00F21A80D151
:01034F00228B
:040350008A248B254B
:10035400120419AA26EAD394004028EA24FFFDE4F3
:1003640034FFFC7F027E00120394AC24AD25CFCD74
:10037400CFCECCCE120288EF54012430FF1203F208
:030384001A80D20A
:010387002253
:0300000002047A7D
:0C047A00787FE4F6D8FD75812602018C25
:10024900BB010CE58229F582E5833AF583E022506A
:1002590006E92582F8E622BBFE06E92582F8E222B4
:0D026900E58229F582E5833AF583E49322CE
:10027600EF8DF0A4A8F0CF8CF0A428CE8DF0A42E9C
:02028600FE2256
:10028800BC000BBE0029EF8DF084FFADF022E4CC5A
:10029800F875F008EF2FFFEE33FEEC33FCEE9DEC23
:1002A800984005FCEE9DFE0FD5F0E9E4CEFD22ED69
:1002B800F8F5F0EE8420D21CFEADF075F008EF2FB3
:1002C800FFED33FD4007985006D5F0F222C398FDA4
:0502D8000FD5F0EA2241
:00000001FF
